{
  "address": "0xe75eCe5A20b89c4D14735dc0447AEd91F703e322",
  "abi": [
    {
      "inputs": [],
      "stateMutability": "nonpayable",
      "type": "constructor"
    },
    {
      "anonymous": false,
      "inputs": [
        {
          "indexed": false,
          "internalType": "uint8",
          "name": "version",
          "type": "uint8"
        }
      ],
      "name": "Initialized",
      "type": "event"
    },
    {
      "anonymous": false,
      "inputs": [
        {
          "indexed": true,
          "internalType": "address",
          "name": "subscriber",
          "type": "address"
        }
      ],
      "name": "Subscribed",
      "type": "event"
    },
    {
      "inputs": [
        {
          "internalType": "uint256",
          "name": "offset",
          "type": "uint256"
        }
      ],
      "name": "getSubscribers",
      "outputs": [
        {
          "internalType": "address[]",
          "name": "",
          "type": "address[]"
        },
        {
          "internalType": "uint256[]",
          "name": "",
          "type": "uint256[]"
        }
      ],
      "stateMutability": "view",
      "type": "function"
    },
    {
      "inputs": [],
      "name": "getSubscribersCount",
      "outputs": [
        {
          "internalType": "uint256",
          "name": "",
          "type": "uint256"
        }
      ],
      "stateMutability": "view",
      "type": "function"
    },
    {
      "inputs": [],
      "name": "subscribe",
      "outputs": [],
      "stateMutability": "nonpayable",
      "type": "function"
    },
    {
      "inputs": [
        {
          "internalType": "address",
          "name": "",
          "type": "address"
        }
      ],
      "name": "subscribedAt",
      "outputs": [
        {
          "internalType": "uint256",
          "name": "",
          "type": "uint256"
        }
      ],
      "stateMutability": "view",
      "type": "function"
    },
    {
      "inputs": [
        {
          "internalType": "uint256",
          "name": "",
          "type": "uint256"
        }
      ],
      "name": "subscribers",
      "outputs": [
        {
          "internalType": "address",
          "name": "",
          "type": "address"
        }
      ],
      "stateMutability": "view",
      "type": "function"
    }
  ],
  "transactionHash": "0xb566cfd061cd7975fad61fa5b24edb30ee6eb3f6dba91be5eb005b47c5145a16",
  "args": [],
  "numDeployments": 5,
  "solcInputHash": "fc3d254f9c34e19747286eb0ca750906",
  "bytecode": "0x608060405234801561001057600080fd5b5061001f61002460201b60201c565b6101bf565b600060019054906101000a900460ff1615610074576040517f08c379a000000000000000000000000000000000000000000000000000000000815260040161006b90610168565b60405180910390fd5b60ff801660008054906101000a900460ff1660ff1610156100e35760ff6000806101000a81548160ff021916908360ff1602179055507f7f26b83ff96e1f2b6a682f133852f6798a09c465da95921460cefb384740249860ff6040516100da91906101a4565b60405180910390a15b565b600082825260208201905092915050565b7f496e697469616c697a61626c653a20636f6e747261637420697320696e69746960008201527f616c697a696e6700000000000000000000000000000000000000000000000000602082015250565b60006101526027836100e5565b915061015d826100f6565b604082019050919050565b6000602082019050818103600083015261018181610145565b9050919050565b600060ff82169050919050565b61019e81610188565b82525050565b60006020820190506101b96000830184610195565b92915050565b610b67806101ce6000396000f3fe608060405234801561001057600080fd5b50600436106100575760003560e01c80633b6058151461005c57806359221a681461008d5780638f449a05146100bd578063a380c7bc146100c7578063e4a86349146100f7575b600080fd5b610076600480360381019061007191906105e0565b610115565b6040516100849291906107bb565b60405180910390f35b6100a760048036038101906100a291906105e0565b6103d3565b6040516100b49190610801565b60405180910390f35b6100c5610412565b005b6100e160048036038101906100dc9190610848565b610580565b6040516100ee9190610884565b60405180910390f35b6100ff610598565b60405161010c9190610884565b60405180910390f35b606080600060028054905011610160576040517f08c379a0000000000000000000000000000000000000000000000000000000008152600401610157906108fc565b60405180910390fd5b60028054905083106101a7576040517f08c379a000000000000000000000000000000000000000000000000000000000815260040161019e90610968565b60405180910390fd5b6000606467ffffffffffffffff8111156101c4576101c3610988565b5b6040519080825280602002602001820160405280156101f25781602001602082028036833780820191505090505b5090506000606467ffffffffffffffff81111561021257610211610988565b5b6040519080825280602002602001820160405280156102405781602001602082028036833780820191505090505b509050600060646002805490501061026957606460028054905061026491906109e6565b61026c565b60005b90506000861461027a578590505b60005b60648110801561029c5750600280549050818361029a9190610a1a565b105b156103c457600281836102af9190610a1a565b815481106102c0576102bf610a4e565b5b9060005260206000200160009054906101000a900473ffffffffffffffffffffffffffffffffffffffff168482815181106102fe576102fd610a4e565b5b602002602001019073ffffffffffffffffffffffffffffffffffffffff16908173ffffffffffffffffffffffffffffffffffffffff16815250506001600085838151811061034f5761034e610a4e565b5b602002602001015173ffffffffffffffffffffffffffffffffffffffff1673ffffffffffffffffffffffffffffffffffffffff168152602001908152602001600020548382815181106103a5576103a4610a4e565b5b60200260200101818152505080806103bc90610a7d565b91505061027d565b50828294509450505050915091565b600281815481106103e357600080fd5b906000526020600020016000915054906101000a900473ffffffffffffffffffffffffffffffffffffffff1681565b6000600160003373ffffffffffffffffffffffffffffffffffffffff1673ffffffffffffffffffffffffffffffffffffffff1681526020019081526020016000205414610494576040517f08c379a000000000000000000000000000000000000000000000000000000000815260040161048b90610b11565b60405180910390fd5b42600160003373ffffffffffffffffffffffffffffffffffffffff1673ffffffffffffffffffffffffffffffffffffffff168152602001908152602001600020819055506002339080600181540180825580915050600190039060005260206000200160009091909190916101000a81548173ffffffffffffffffffffffffffffffffffffffff021916908373ffffffffffffffffffffffffffffffffffffffff1602179055503373ffffffffffffffffffffffffffffffffffffffff167fa88fac53823b534c72d6958345adbe6801e072750d83b490d52ebbac51473a6360405160405180910390a2565b60016020528060005260406000206000915090505481565b6000600280549050905090565b600080fd5b6000819050919050565b6105bd816105aa565b81146105c857600080fd5b50565b6000813590506105da816105b4565b92915050565b6000602082840312156105f6576105f56105a5565b5b6000610604848285016105cb565b91505092915050565b600081519050919050565b600082825260208201905092915050565b6000819050602082019050919050565b600073ffffffffffffffffffffffffffffffffffffffff82169050919050565b600061066482610639565b9050919050565b61067481610659565b82525050565b6000610686838361066b565b60208301905092915050565b6000602082019050919050565b60006106aa8261060d565b6106b48185610618565b93506106bf83610629565b8060005b838110156106f05781516106d7888261067a565b97506106e283610692565b9250506001810190506106c3565b5085935050505092915050565b600081519050919050565b600082825260208201905092915050565b6000819050602082019050919050565b610732816105aa565b82525050565b60006107448383610729565b60208301905092915050565b6000602082019050919050565b6000610768826106fd565b6107728185610708565b935061077d83610719565b8060005b838110156107ae5781516107958882610738565b97506107a083610750565b925050600181019050610781565b5085935050505092915050565b600060408201905081810360008301526107d5818561069f565b905081810360208301526107e9818461075d565b90509392505050565b6107fb81610659565b82525050565b600060208201905061081660008301846107f2565b92915050565b61082581610659565b811461083057600080fd5b50565b6000813590506108428161081c565b92915050565b60006020828403121561085e5761085d6105a5565b5b600061086c84828501610833565b91505092915050565b61087e816105aa565b82525050565b60006020820190506108996000830184610875565b92915050565b600082825260208201905092915050565b7f4e6f20737562736372696265727320617661696c61626c650000000000000000600082015250565b60006108e660188361089f565b91506108f1826108b0565b602082019050919050565b60006020820190508181036000830152610915816108d9565b9050919050565b7f4f6666736574206f7574206f6620626f756e6473000000000000000000000000600082015250565b600061095260148361089f565b915061095d8261091c565b602082019050919050565b6000602082019050818103600083015261098181610945565b9050919050565b7f4e487b7100000000000000000000000000000000000000000000000000000000600052604160045260246000fd5b7f4e487b7100000000000000000000000000000000000000000000000000000000600052601160045260246000fd5b60006109f1826105aa565b91506109fc836105aa565b9250828203905081811115610a1457610a136109b7565b5b92915050565b6000610a25826105aa565b9150610a30836105aa565b9250828201905080821115610a4857610a476109b7565b5b92915050565b7f4e487b7100000000000000000000000000000000000000000000000000000000600052603260045260246000fd5b6000610a88826105aa565b91507fffffffffffffffffffffffffffffffffffffffffffffffffffffffffffffffff8203610aba57610ab96109b7565b5b600182019050919050565b7f416c726561647920737562736372696265640000000000000000000000000000600082015250565b6000610afb60128361089f565b9150610b0682610ac5565b602082019050919050565b60006020820190508181036000830152610b2a81610aee565b905091905056fea264697066735822122092954783da7ff196b664a3b01de2130aec2f09a3e7036b0a63dcb713127b1b3964736f6c63430008120033",
  "devdoc": {
    "events": {
      "Initialized(uint8)": {
        "details": "Triggered when the contract has been initialized or reinitialized."
      }
    },
    "kind": "dev",
    "methods": {
      "constructor": {
        "custom:oz-upgrades-unsafe-allow": "constructor"
      },
      "getSubscribers(uint256)": {
        "details": "utility function that can return subscribers in chunks of 100sthis is to avoid out of gas errors when calling from the frontend"
      }
    },
    "stateVariables": {
      "subscribers": {
        "details": "we also put the subscribers in an array to be able to pick random onessure could be done more gas efficient but should be fine for Canto"
      }
    },
    "version": 1
  },
  "userdoc": {
    "kind": "user",
    "methods": {},
    "version": 1
  },
  "storageLayout": {
    "storage": [
      {
        "astId": 6,
        "contract": "contracts/CantoHerald.sol:CantoHerald",
        "label": "_initialized",
        "offset": 0,
        "slot": "0",
        "type": "t_uint8"
      },
      {
        "astId": 9,
        "contract": "contracts/CantoHerald.sol:CantoHerald",
        "label": "_initializing",
        "offset": 1,
        "slot": "0",
        "type": "t_bool"
      },
      {
        "astId": 461,
        "contract": "contracts/CantoHerald.sol:CantoHerald",
        "label": "subscribedAt",
        "offset": 0,
        "slot": "1",
        "type": "t_mapping(t_address,t_uint256)"
      },
      {
        "astId": 465,
        "contract": "contracts/CantoHerald.sol:CantoHerald",
        "label": "subscribers",
        "offset": 0,
        "slot": "2",
        "type": "t_array(t_address)dyn_storage"
      }
    ],
    "types": {
      "t_address": {
        "encoding": "inplace",
        "label": "address",
        "numberOfBytes": "20"
      },
      "t_array(t_address)dyn_storage": {
        "base": "t_address",
        "encoding": "dynamic_array",
        "label": "address[]",
        "numberOfBytes": "32"
      },
      "t_bool": {
        "encoding": "inplace",
        "label": "bool",
        "numberOfBytes": "1"
      },
      "t_mapping(t_address,t_uint256)": {
        "encoding": "mapping",
        "key": "t_address",
        "label": "mapping(address => uint256)",
        "numberOfBytes": "32",
        "value": "t_uint256"
      },
      "t_uint256": {
        "encoding": "inplace",
        "label": "uint256",
        "numberOfBytes": "32"
      },
      "t_uint8": {
        "encoding": "inplace",
        "label": "uint8",
        "numberOfBytes": "1"
      }
    }
  }
}